:020000040000FA
:060000000A128A11122809
:10000800FE00030E83120313B9000408BA000A089D
:10001800BB007F08BC000A128A11362A0A128A110C
:10002800152883120313C301C401C501C601C70102
:10003800C801C901CA01CB01CC0183010A128A1186
:10004800EC2983120313BF003F0803192C282D281D
:10005800BF28133083160313930018308312031339
:10006800BD003D0883160313870445288316031330
:10007800941789287F30BD003D0883160313940523
:100088008928831203133F08840083130008BD00E6
:10009800BE013E08003A0319522889283D08003A53
:1000A80003193A28013A03193E2889289415F8308B
:1000B800BD003D089405A8280630BD003D089404FD
:1000C800F630BD003D089405A8280730BD003D085E
:1000D8009404F730BD003D089405A8280E30BD00F3
:1000E8003D089404FE30BD003D089405A8280F3053
:1000F800BD003D089404A8280B30BD003D089404B9
:10010800FB30BD003D089405A82883123F0A8400EF
:100118000008BD00BE013E08003A03199428A8282B
:100128003D08003A03195A28013A03196028033A8E
:1001380003196928013A03197228073A03197B2819
:10014800013A03198028A8283F08023E84000003CA
:10015800031DAF28B028B2289416BF283F08023ED6
:1001680084000008031DB928BA28BF28DF30BD0065
:100178003D089405BF280800831203133108B60010
:100188003008B5002F08B4002E08B300B7010030BE
:10019800F7000030F6000030F5001430F4000530A8
:1001A800B2003208F00037080A128A1167220A12D0
:1001B8008A11023E84000A128A1152220A128A11F6
:1001C800F8000A128A1152220A128A11F9000A1238
:1001D8008A1152220A128A11FA000A128A1152222C
:1001E8000A128A11FB000A128A112E210A128A1198
:1001F800770883120313A8007608A7007508A600DD
:100208007408A5003608AC003508AB003408AA000D
:100218003308A9000A128A1196210A128A11831238
:1002280003132808270426042504031D1C291D2957
:10023800232937084A3E840083138001800A01304D
:10024800B2003208B70703303702031C2C292D29C6
:10025800CB280800003083120313A3000030A2004B
:100268000030A1000030A0007708760475047404FB
:1002780003193F2940298D29A401A40A50290130D6
:10028800FC000310F40DF50DF60DF70DFC0B4529D8
:100298000130FC007C08A407F71F5329542943297F
:1002A8000130FC000310A00DA10DA20DA30DFC0B45
:1002B800562977087B02031D6B2976087A02031DED
:1002C8006B2975087902031D6B2974087802031CD1
:1002D8006E296F297E297408F8027508031C750FAA
:1002E800F9027608031C760FFA027708031C770FC9
:1002F800FB02201401300310F70CF60CF50CF40C7B
:10030800FF3E031D7F290130A402031D8C298D297E
:1003180054292308F7002208F6002108F5002008D0
:10032800F400080083120313280827042604250470
:1003380003199F29A029E329AD01AD0AB02901308D
:10034800FD000310A50DA60DA70DA80DFD0BA529F1
:100358000130FD007D08AD07A81FB329B429A329E2
:1003680028082C02031DC22927082B02031DC229B5
:1003780026082A02031DC22925082902031CC529AB
:10038800C629D4292508A9022608031C260FAA0273
:100398002708031C270FAB022808031C280FAC02F0
:1003A80001300310A80CA70CA60CA50CFF3E031DDA
:1003B800D5290130AD02031DE229E329B4292C080F
:1003C800A8002B08A7002A08A6002908A5000800ED
:1003D800831203134708C0004808C1004908C20037
:1003E800C001C101C201C20A40300A128A11252087
:1003F8000A128A110A128A119E220A128A110230DE
:100408000A128A117C220A128A1161300A128A1190
:100418007C220A128A110A128A1190220A128A115F
:10042800FE290A128A111228013083120313C30706
:10043800003003180130C407003003180130C50725
:10044800003003180130C6070030B1000030B0009A
:100458000330AF00E830AE000A128A11C0200A1239
:100468008A1108000B1D392A3A2A452AFB30B800A0
:1004780038088B05643081000A128A1118220A1282
:100488008A11831203133C08FF003B088A003A08CC
:100498008400390E8300FE0E7E0E090002308A00A9
:1004A8000408840A8207003400340A340034003413
:1004B80000340034323400340034003400346434FE
:1004C800003400340034F300F201731C6C2A6D2AE6
:1004D800712A7008F1007108F2070310F00D03107B
:1004E800F30C7308031D792A7A2A692A720808000E
:1004F80083120313BD008316031311081F39031D4C
:10050800862A872A7F2A14198A2A8B2A7F2A831205
:1005180003133D08930008008316031311081F39BD
:10052800031D972A982A902A14199B2A9C2A902AF4
:10053800111508008316031311081F39031DA52A76
:10054800A62A9E2A1419A92AAA2A9E2A1114080042
:02400E00BA3FB7
:00000001FF
